:100000000C945A000C94D2000C94D2000C94D200A0
:100010000C94D2000C94D2000C9484000C94D20066
:100020000C94D2000C94D2000C94D2000C94D20008
:100030000C94D2000C94D2000C94D2000C94D200F8
:100040000C94D2000C94D2000C94D2000C94D200E8
:100050000C94D2000C94D2000C94D2000C94D200D8
:100060000C94D2000C94D2000C94D2000C94D200C8
:100070000C94D2000C94D2000C94D2000C94D200B8
:100080000C94D2000C94D2000C94D2000C94D200A8
:100090000C94D2000C94D2000C94D2000C94D20098
:1000A0000C94D2000C94D2000C94D2000C94D20088
:1000B0000C94D20011241FBECFEFD8E0DEBFCDBF1D
:1000C000E4EBF0E040E017C0B591A59135912591A2
:1000D000059107FD0CC095918591EF01F92FE82F4F
:1000E00005900D92A217B307D9F7FE0104C01D9227
:1000F000A217B307E1F7E43BF40731F70E94990038
:080100000C948200F894FFCF7B
:100108001F920F920FB60F9211248F93EF93FF93C4
:10011800E0E6F0E080818F778083FF91EF918F9107
:0A0128000F900FBE0F901F90189566
:100132000E94C10091E08BB189278BB92FEF31EE7C
:1001420084E0215030408040E1F700C00000F3CF4E
:1001520014B817B881E08AB91DB815B818B81BB819
:0C0162001EB813B816B819B81CB80895E0
:10016E0010926400109265001092610013BE15BECD
:04017E0080E0089580
:100182000E94A9000E94B700109260000E94CA005B
:020192000895CE
:10019400109264001092650013BE15BE80E00895AD
:0401A4000C940000B7
:02000004008278
:0300000042DF07D5
:00000001FF
