:0400000096EF00F087
:100008005882FACF2BF0FBCF2CF0D9CF2DF0DACFD6
:100018002EF09DAA12EF00F014EF00F071EF00F03F
:100028009EAA19EF00F01BEF00F071EF00F002D864
:1000380028EF00F00500FA6E5550FD6E5650FE6E22
:10004800F850FF6EFA501200AECF2FF044EF00F0D8
:100058008A808CEF00F08A908CEF00F08A828CEF17
:1000680000F08A928CEF00F08A848CEF00F08A947A
:100078008CEF00F08A868CEF00F08A968CEF00F007
:100088002F50296E2A6A2A50000AD8B44EEF00F081
:100098008CEF00F02950610AD8B42CEF00F0030A65
:1000A800D8B42FEF00F0010AD8B432EF00F0070AF5
:1000B800D8B435EF00F0010AD8B438EF00F0030ADD
:1000C800D8B43BEF00F0010AD8B43EEF00F00F0AB5
:1000D800D8B441EF00F08CEF00F09DA876EF00F067
:1000E80078EF00F08CEF00F09EA87DEF00F07FEF36
:1000F80000F08CEF00F002D88CEF00F00500FA6EEB
:100108005350FD6E5450FE6EF850FF6EFA501200B8
:100118002EC0DAFF2DC0D9FF2CC0FBFF2BC0FAFF81
:080128005892110029EF06F0C6
:0908000000686F6C610A0D000034
:10080A003DC0D9FF3EC0DAFFDECFF6FFDDCFF7FFEE
:10081A000800F550250AD8A415EF04F017EF04F0E4
:10082A005EEF04F03DC0D9FF3EC0DAFFDE2A000EBB
:10083A00DD22000E1C6E000E1B6E1BC01FF01CC0BA
:10084A0020F01D681E683DC0D9FF3EC0DAFFDECF2A
:10085A00F6FFDDCFF7FF0800F550250AD8A438EFD8
:10086A0004F03AEF04F051EF04F03DC0D9FF3EC066
:10087A00DAFFDE2A000EDD22000E336E250E326EFE
:10088A003BC034F03CC035F0D8EC04F0000E3C6EAE
:10089A00010E3B6E79EF04F03DC0D9FF3EC0DAFF8E
:1008AA00DE2A000EDD22000E3C6E000E3B6E79EF52
:1008BA0004F03DC0D9FF3EC0DAFFDECFF6FFDDCF40
:1008CA00F7FF0800F550326E336A3BC034F03CC083
:1008DA0035F0D8EC04F03DC0D9FF3EC0DAFFDE2A7D
:1008EA00000EDD224BEF04F01200010E2624D96E11
:1008FA00DA6A000EDA22000EDF6EABA487EF04F08C
:10090A0089EF04F09DEF04F0010E2624D96EDA6A0D
:10091A00000EDA22DF8202D89DEF04F00500FA6E9B
:10092A005150FD6E5250FE6EF850FF6EFA50120092
:10093A00ABA2A2EF04F0A4EF04F0B8EF04F0010EAA
:10094A002624D96EDA6A000EDA22DF8402D8B8EFDA
:10095A0004F00500FA6E4F50FD6E5050FE6EF850CE
:10096A00FF6EFA501200010E2624D96EDA6A000EC2
:10097A00DA22DF50D8B4C4EF04F0C6EF04F0D5EFA2
:10098A0004F002D8D3EF04F00500FA6E4D50FD6E64
:10099A004E50FE6EF850FF6EFA501200D7EF04F078
:1009AA0014EC06F0120034503510D8B4DFEF04F01E
:1009BA00E1EF04F0EAEF04F034503510D8A4E8EF80
:1009CA0004F0EAEF04F0EFEF04F0325077EC06F0AF
:1009DA0022EF05F020EE04F03450D9263550DA2201
:1009EA00DE50DE10D8B4FCEF04F0FEEF04F019EF8D
:1009FA0005F020EE04F03450D9263550DA2210EEF4
:100A0A0002F03450E1263550E222DE50E65CE65030
:100A1A00800A3A6EDE50800A3A58D8B017EF05F0CD
:100A2A0019EF05F022EF05F020EE02F03450D92636
:100A3A003550DA22DE2A000EDD2212009D9AF40ECB
:100A4A00306E080E316E81EC06F09D98AE0E306E57
:100A5A000B0E316E7CEC06F0080EB86E900EAB6E83
:100A6A00240EAC6E330EAF6E000EB06E3E0E306EBC
:100A7A000D0E316E8BEC06F0320E306E0D0E316EAD
:100A8A0086EC06F0380E306E0D0E316E90EC06F0E4
:100A9A00000E236E000E286E000E276E080E576E8B
:100AAA00000E266E000E256E000E246E9D8A120020
:100ABA0043C047F044C048F0000E1A6E000E196E8B
:100ACA0079EF05F041C03BF042C03CF0470E3D6E65
:100ADA00000E3E6E45C03FF046C040F005EC04F003
:100AEA003B5019263C501A2247C0F6FF48C0F7FF70
:100AFA000800F5500009D8A485EF05F087EF05F046
:100B0A0067EF05F019C041F01AC042F01200306ECA
:100B1A005750D8B493EF05F095EF05F08DEF05F037
:100B2A009DB89AEF05F09CEF05F0A0EF05F030C0F4
:100B3A00ADFFB5EF05F09D98110E2824D96EDA6A3B
:100B4A00000EDA2230C0DFFF282A070E2864B0EF31
:100B5A0005F0B2EF05F0B4EF05F0000E286E570667
:100B6A009D881200000E8D6E000E8C6E000E896E2E
:100B7A00000E8A6E000E8B6E070E966E9268F00E4D
:100B8A00936E870E946E95680F015E69040E5D6F11
:100B9A00300E5C6F070E5F6F2F0E5B6F000E856E57
:100BAA00F18E1200080E5760DDEF05F0DFEF05F059
:100BBA00F5EF05F0110E2724D96EDA6A000EDA2253
:100BCA00DF50AD6E272A070E2764EEEF05F0F0EF2F
:100BDA0005F0F2EF05F0000E276E572AF6EF05F042
:100BEA009D9812004FEC06F0F28EF28CF29EF28C77
:100BFA00010E496E080E4A6E3CEC06F0020E000128
:100C0A00816F040E806FBA0EE82EFED7802FFCD7B4
:100C1A00812FFAD700F0FDEF05F096EF00F0090EEC
:100C2A002624D96EDA6A000EDA22AECFDFFF262A30
:100C3A00070E266423EF06F025EF06F027EF06F0ED
:100C4A00000E266E242A120000EE60F0200EEE6AD4
:100C5A00E806FDE100EE01F0280EEE6AE806FDE185
:100C6A0058905892000EF86E0001F7EF05F04B0EFF
:100C7A004B6E000E4C6E000E416E000E426E49C065
:100C8A0043F04AC044F04B0E456E000E466E5DECD2
:100C9A0005F0120095EC06F0B7EC05F067EC06F0EB
:100CAA0070EC06F05CEC06F023EC05F01200000E86
:100CBA00C16E000EC06E000EC36E000EC46E010E31
:100CCA00C26E1200420ED36E000ED26E000E9B6EE2
:100CDA00000EB56E1200000E976E000E906E000E9A
:100CEA00916E1200316E31508CEC05F0120030C05A
:100CFA0053F031C054F0120030C055F031C056F0F4
:100D0A00120030C04FF031C050F0120030C051F024
:100D1A0031C052F0120030C04DF031C04EF0120016
:100D2A00D08E9F9A9F981200AB98AB88120014EC51
:060D3A0006F01200120099
:020000040020DA
:08000000FFFFFFFFFFFFFFFF00
:020000040030CA
:0E00000000285F3CFFD385FF0FC00FE00F40CC
:00000001FF
